:2000000002001AC0F9A4B0999282F80200D3C0F9A4B0999282F88090FFC7758DF6758BF6C7
:20002000120167D2B4D2B575153C75141E75110012010AC290C200C201C20230A00B30A1E2
:200040002B30A24B30A364013BC29112014520A0EA30A0FDD29120020320010AE516B40061
:200060000375160A151612010A02003BC29212014520A1C730A1FDD29220020320010AE5C8
:2000800016B409037516FF051612010A02003BC29112014520A2A430A2FDD2912002032003
:2000A000010312017712010A02003BC29212014520A38830A3FDD2922001061201A0020051
:2000C000CD2002061201C10200CD1201CD12010A02003BC083C082120167D51405B29075AA
:2000E000141ED5150612010A75153C300217D513147513C8D5120E751204C20275170B7516
:20010000160B12010AD082D08332C0E0B200E517120126E516200203200105200002740A5D
:20012000120126D0E022C082C083C00490000E937C083392B5C2B4000000D2B4DCF4D0049C
:20014000D083D08222C007C006C0057F017E267D82DDFEDEFADFF6D005D006D007227E01B8
:200160007D01DDFEDEFA22758921758CEE758A00D2AFD2A9D28C22C083C082C0E0C000E5D9
:2001800017241CF8A616E517B403037517FF0517E517241CF88616D000D0E0D082D08322E0
:2001A0007818791C7D04E7F67400F70809DDF7D2017513C875120475170B75160B12010A74
:2001C00022D20275170075160012010A227818791C7D04E7F5F0E6B5F01F0809DDF5751748
:2001E00000751600C202C201C2B37D32120145DDFBD2B375110002020C0511E511C3940318
:100200005002C2B3C20275170B75160B12010A22F7
:00000001FF
