:2000000002001AC0F9A4B0999282F8020092C0F9A4B0999282F88090FFC7751E05751D01CB
:20002000751F14C200D2B2D2B330A00B30A11D30A22F30A3450129C29112010E20A0EA30F3
:20004000A0FDD291E51E1200DE020029C29212010E20A1D530A1FDD292E51D1200DE020051
:2000600029C29112010E20A2C030A2FDD291851E1C1200DE1200BD020029C292C2B2C2B349
:2000800012010E20A3A330A3FDD292D2B2D2B30200291200BDB290D51F22751F14D51C179A
:2000A00020000C851D1CC2B2C2B3D2000200B7D2B2D2B3C200C2A9E51C1200DE327589018A
:2000C000758C4C758A00D2AFD2A9D28C22C082C083907FFFE075F01084D083D08222C0E085
:2000E00075F00A841200EFE5F01200EFD0E022C082C083C00490000E937C083392B5C2B476
:20010000000000D2B4DCF4D004D083D08222C007C006C0057F017E267D82DDFEDEFADFF6F1
:07012000D005D006D0072234
:00000001FF
