:2000000002001AB0999282F88090FF020041C0F9A4B0999282F88090FFC77517007516007E
:2000200075153C75141E12013CC200D201C202D2B4D2B530A02830A13530A24230A36A014E
:2000400033C083C08212013CD51405B29075141ED515061200E375153CD082D08332C291ED
:2000600012012320A0CD30A0FDD291020033C29212012320A1BD30A1FDD292020033C29196
:2000800012012320A2AD30A2FDD291200111200207C201D2020200A3D201C2020200A3C2F4
:2000A00001C2021200E3020033C0E0C29212012320A38030A3FDD292200106200210020055
:2000C000DBE517B4090274FF04F5170200DBE516B4090274FF04F5160200DBD0E01200E36C
:2000E000020033C0E0B200E517200005300102740A120104E516200005300202740A1201AB
:2001000004D0E022C082C083C00490000E937C083392B5C2B4000000D2B4DCF4D004D0839E
:20012000D08222C007C006C0057F017E267D82DDFEDEFADFF6D005D006D007227589217516
:0C0140008CEE758A00D2AFD2A9D28C22BE
:00000001FF
