:2000000002001AFFFFFFFFFFFFFFFF020031C0F9A4B0999282F88090FFC7751700751600FA
:2000200012013F30A02830A13530A24230A36A0123C083C08212013FD51405B29075141E4D
:20004000D515061200D375153CD082D08332C29112012620A0CD30A0FDD291020023C2926C
:2000600012012620A1BD30A1FDD292020023C29112012620A2AD30A2FDD2912001112002F1
:2000800007C201D202020093D201C202020093C201C2021200D3020023C0E0C29212012643
:2000A00020A38030A3FDD2922001062002100200CBE517B4090274FF04F5170200CBE5169D
:2000C000B4090274FF04F5160200CBD0E01200D3020023C0E0B20030002020011030021A39
:2000E000E517120107740A120016020104740A120017E516120107020104E517120107E57F
:2001000016120107D0E022C082C083C00490000E937C083392B5C2B4000000D2B4DCF4D0C9
:2001200004D083D08222C007C006C0057F017E267D82DDFEDEFADFF6D005D006D0072275DE
:0F0140008921758CEE758A00D2AFD2A9D28C229C
:00000001FF
